{
    "contractName": "Democracy",
    "abi": [
        {
            "inputs": [],
            "stateMutability": "nonpayable",
            "type": "constructor"
        },
        {
            "inputs": [],
            "name": "destroy",
            "outputs": [],
            "stateMutability": "nonpayable",
            "type": "function"
        },
        {
            "inputs": [
                {
                    "internalType": "uint256",
                    "name": "_gasEstimate",
                    "type": "uint256"
                }
            ],
            "name": "fundVoters",
            "outputs": [],
            "stateMutability": "nonpayable",
            "type": "function"
        },
        {
            "inputs": [],
            "name": "getResults",
            "outputs": [
                {
                    "internalType": "int256",
                    "name": "",
                    "type": "int256"
                }
            ],
            "stateMutability": "view",
            "type": "function"
        },
        {
            "inputs": [
                {
                    "internalType": "string",
                    "name": "question",
                    "type": "string"
                },
                {
                    "internalType": "int256",
                    "name": "choice",
                    "type": "int256"
                }
            ],
            "name": "getResults2",
            "outputs": [
                {
                    "internalType": "int256",
                    "name": "",
                    "type": "int256"
                }
            ],
            "stateMutability": "view",
            "type": "function"
        },
        {
            "inputs": [],
            "name": "getTotalVotes",
            "outputs": [
                {
                    "internalType": "int256",
                    "name": "",
                    "type": "int256"
                }
            ],
            "stateMutability": "view",
            "type": "function"
        },
        {
            "inputs": [
                {
                    "internalType": "address payable[]",
                    "name": "_voters",
                    "type": "address[]"
                }
            ],
            "name": "registerVoters",
            "outputs": [],
            "stateMutability": "nonpayable",
            "type": "function"
        },
        {
            "inputs": [
                {
                    "internalType": "int256",
                    "name": "ballot",
                    "type": "int256"
                }
            ],
            "name": "sendBallot",
            "outputs": [],
            "stateMutability": "nonpayable",
            "type": "function"
        },
        {
            "inputs": [
                {
                    "internalType": "address",
                    "name": "",
                    "type": "address"
                }
            ],
            "name": "votes",
            "outputs": [
                {
                    "internalType": "int256",
                    "name": "",
                    "type": "int256"
                }
            ],
            "stateMutability": "view",
            "type": "function"
        },
        {
            "stateMutability": "payable",
            "type": "receive"
        }
    ],
    "bytecode": "608060405234801561001057600080fd5b5060006001819055808055600655600380546001600160a01b0319163317905560405160059060029061005b907157686f20697320796f75722064616464793f60701b815260120190565b9081526040805160209281900383019020600160009081529252902055610786806100876000396000f3fe60806040526004361061007f5760003560e01c806383197ef01161004e57806383197ef0146101455780639a0e7d661461015a578063d55ec9c11461016f578063d8bff5a51461018f57600080fd5b80630c899e58146100be578063332bc783146100f057806340233b0d146101105780634717f97c1461013057600080fd5b366100b9576003546001600160a01b031633146100b75760405162461bcd60e51b81526004016100ae90610641565b60405180910390fd5b005b600080fd5b3480156100ca57600080fd5b506100de6100d93660046105b9565b6101bc565b60405190815260200160405180910390f35b3480156100fc57600080fd5b506100b761010b3660046105a0565b6101f9565b34801561011c57600080fd5b506100b761012b3660046105a0565b610296565b34801561013c57600080fd5b506000546100de565b34801561015157600080fd5b506100b7610346565b34801561016657600080fd5b506001546100de565b34801561017b57600080fd5b506100b761018a3660046104d4565b61037e565b34801561019b57600080fd5b506100de6101aa3660046104b0565b60046020526000908152604090205481565b6000600284846040516101d0929190610631565b908152602001604051809103902060008381526020019081526020016000205490509392505050565b33600090815260046020526040902054600019146102595760405162461bcd60e51b815260206004820152601860248201527f556e7265676973746572656420766f7465722e204379612e000000000000000060448201526064016100ae565b8060008082825461026a9190610685565b90915550506001805490600061027f836106c6565b909155505033600090815260046020526040902055565b6003546001600160a01b031633146102c05760405162461bcd60e51b81526004016100ae90610641565b6000600654116102cf57600080fd5b60005b60065481101561034257600581815481106102ef576102ef61070c565b60009182526020822001546040516001600160a01b039091169184156108fc02918591818181858888f1935050505015801561032f573d6000803e3d6000fd5b508061033a816106e6565b9150506102d2565b5050565b6003546001600160a01b031633146103705760405162461bcd60e51b81526004016100ae90610641565b6003546001600160a01b0316ff5b6003546001600160a01b031633146103a85760405162461bcd60e51b81526004016100ae90610641565b805160068190556103c0906005906020840190610426565b5060005b60065481101561034257600019600460008484815181106103e7576103e761070c565b60200260200101516001600160a01b03166001600160a01b0316815260200190815260200160002081905550808061041e906106e6565b9150506103c4565b82805482825590600052602060002090810192821561047b579160200282015b8281111561047b57825182546001600160a01b0319166001600160a01b03909116178255602090920191600190910190610446565b5061048792915061048b565b5090565b5b80821115610487576000815560010161048c565b80356104ab81610738565b919050565b6000602082840312156104c257600080fd5b81356104cd81610738565b9392505050565b600060208083850312156104e757600080fd5b823567ffffffffffffffff808211156104ff57600080fd5b818501915085601f83011261051357600080fd5b81358181111561052557610525610722565b8060051b604051601f19603f8301168101818110858211171561054a5761054a610722565b604052828152858101935084860182860187018a101561056957600080fd5b600095505b838610156105935761057f816104a0565b85526001959095019493860193860161056e565b5098975050505050505050565b6000602082840312156105b257600080fd5b5035919050565b6000806000604084860312156105ce57600080fd5b833567ffffffffffffffff808211156105e657600080fd5b818601915086601f8301126105fa57600080fd5b81358181111561060957600080fd5b87602082850101111561061b57600080fd5b6020928301989097509590910135949350505050565b8183823760009101908152919050565b60208082526024908201527f4f776e61626c653a20596f7520617265206e6f7420746865206f776e65722c20604082015263213cb29760e11b606082015260800190565b600080821280156001600160ff1b03849003851316156106a7576106a76106f6565b600160ff1b83900384128116156106c0576106c06106f6565b50500190565b60006001600160ff1b038214156106df576106df6106f6565b5060010190565b60006000198214156106df576106df5b634e487b7160e01b600052601160045260246000fd5b634e487b7160e01b600052603260045260246000fd5b634e487b7160e01b600052604160045260246000fd5b6001600160a01b038116811461074d57600080fd5b5056fea2646970667358221220ce117324f3606cbf32e465ae217074d23d9074e83bca8b7ac8f8b8c1f334971e64736f6c63430008070033",
    "sourcePath": "/home/mdip/Projects/democracy/ethereum-smart-contract/Democracy.sol",
    "compiler": {
        "name": "solc",
        "version": "0.8.7+commit.e28d00a7"
    },
    "functionHashes": {
        "destroy()": "83197ef0",
        "fundVoters(uint256)": "40233b0d",
        "getResults()": "4717f97c",
        "getResults2(string,int256)": "0c899e58",
        "getTotalVotes()": "9a0e7d66",
        "registerVoters(address[])": "d55ec9c1",
        "sendBallot(int256)": "332bc783",
        "votes(address)": "d8bff5a5"
    },
    "gasEstimates": {
        "creation": {
            "codeDepositCost": "385200",
            "executionCost": "61987",
            "totalCost": "447187"
        },
        "external": {
            "destroy()": "31996",
            "fundVoters(uint256)": "infinite",
            "getResults()": "2347",
            "getResults2(string,int256)": "infinite",
            "getTotalVotes()": "2302",
            "registerVoters(address[])": "infinite",
            "sendBallot(int256)": "73290",
            "votes(address)": "2567"
        }
    }
}