{
    "contractName": "Democracy",
    "abi": [
        {
            "inputs": [],
            "stateMutability": "payable",
            "type": "constructor"
        },
        {
            "inputs": [
                {
                    "internalType": "string",
                    "name": "_question",
                    "type": "string"
                },
                {
                    "internalType": "string[]",
                    "name": "_choices",
                    "type": "string[]"
                },
                {
                    "internalType": "address payable[]",
                    "name": "_voters",
                    "type": "address[]"
                }
            ],
            "name": "beginVote",
            "outputs": [],
            "stateMutability": "nonpayable",
            "type": "function"
        },
        {
            "inputs": [
                {
                    "internalType": "uint256",
                    "name": "",
                    "type": "uint256"
                }
            ],
            "name": "choices",
            "outputs": [
                {
                    "internalType": "string",
                    "name": "",
                    "type": "string"
                }
            ],
            "stateMutability": "view",
            "type": "function"
        },
        {
            "inputs": [],
            "name": "ended",
            "outputs": [
                {
                    "internalType": "bool",
                    "name": "",
                    "type": "bool"
                }
            ],
            "stateMutability": "view",
            "type": "function"
        },
        {
            "inputs": [],
            "name": "numChoices",
            "outputs": [
                {
                    "internalType": "uint256",
                    "name": "",
                    "type": "uint256"
                }
            ],
            "stateMutability": "view",
            "type": "function"
        },
        {
            "inputs": [
                {
                    "internalType": "uint256",
                    "name": "",
                    "type": "uint256"
                }
            ],
            "name": "results",
            "outputs": [
                {
                    "internalType": "uint256",
                    "name": "",
                    "type": "uint256"
                }
            ],
            "stateMutability": "view",
            "type": "function"
        },
        {
            "inputs": [
                {
                    "internalType": "uint256",
                    "name": "_ballot",
                    "type": "uint256"
                }
            ],
            "name": "sendBallot",
            "outputs": [],
            "stateMutability": "nonpayable",
            "type": "function"
        },
        {
            "inputs": [],
            "name": "started",
            "outputs": [
                {
                    "internalType": "bool",
                    "name": "",
                    "type": "bool"
                }
            ],
            "stateMutability": "view",
            "type": "function"
        },
        {
            "inputs": [],
            "name": "topic",
            "outputs": [
                {
                    "internalType": "string",
                    "name": "",
                    "type": "string"
                }
            ],
            "stateMutability": "view",
            "type": "function"
        },
        {
            "inputs": [],
            "name": "version",
            "outputs": [
                {
                    "internalType": "string",
                    "name": "",
                    "type": "string"
                }
            ],
            "stateMutability": "view",
            "type": "function"
        },
        {
            "inputs": [
                {
                    "internalType": "address",
                    "name": "",
                    "type": "address"
                }
            ],
            "name": "voted",
            "outputs": [
                {
                    "internalType": "int256",
                    "name": "",
                    "type": "int256"
                }
            ],
            "stateMutability": "view",
            "type": "function"
        },
        {
            "stateMutability": "payable",
            "type": "receive"
        }
    ],
    "bytecode": "60c060405260036080908152620312e360ec1b60a05260009061002290826100e4565b506005805461ffff19169055600780546001600160a01b031916331790556101a3565b634e487b7160e01b600052604160045260246000fd5b600181811c9082168061006f57607f821691505b60208210810361008f57634e487b7160e01b600052602260045260246000fd5b50919050565b601f8211156100df57600081815260208120601f850160051c810160208610156100bc5750805b601f850160051c820191505b818110156100db578281556001016100c8565b5050505b505050565b81516001600160401b038111156100fd576100fd610045565b6101118161010b845461005b565b84610095565b602080601f831160018114610146576000841561012e5750858301515b600019600386901b1c1916600185901b1785556100db565b600085815260208120601f198616915b8281101561017557888601518255948401946001909101908401610156565b50858210156101935787850151600019600388901b60f8161c191681555b5050505050600190811b01905550565b610b4d80620001b36000396000f3fe6080604052600436106100955760003560e01c806354fd4d501161005957806354fd4d50146101c8578063a9092c11146101ea578063aec2ccae14610200578063bf63a5771461022d578063f6fd7fde1461024257600080fd5b806312fa6feb1461010c5780631b0c27da146101405780631f2698ab1461016e5780633f7be535146101885780634900a285146101a857600080fd5b36610107576007546001600160a01b031633146101055760405162461bcd60e51b8152602060048201526024808201527f4f776e61626c653a20596f7520617265206e6f7420746865206f776e65722c20604482015263213cb29760e11b60648201526084015b60405180910390fd5b005b600080fd5b34801561011857600080fd5b5060055461012b90610100900460ff1681565b60405190151581526020015b60405180910390f35b34801561014c57600080fd5b5061016061015b3660046106ab565b610262565b604051908152602001610137565b34801561017a57600080fd5b5060055461012b9060ff1681565b34801561019457600080fd5b506101056101a3366004610828565b610283565b3480156101b457600080fd5b506101056101c33660046106ab565b6103b8565b3480156101d457600080fd5b506101dd6104c2565b604051610137919061091f565b3480156101f657600080fd5b5061016060035481565b34801561020c57600080fd5b5061016061021b36600461096d565b60086020526000908152604090205481565b34801561023957600080fd5b506101dd610550565b34801561024e57600080fd5b506101dd61025d3660046106ab565b61055d565b6004818154811061027257600080fd5b600091825260209091200154905081565b6007546001600160a01b0316331461029a57600080fd5b60055460ff16156102aa57600080fd5b600060065560016102bb8482610a1a565b50815160038190556102d4906002906020850190610588565b508051600a8190556102ed9060099060208401906105de565b5060005b60035481101561033f576004805460018101825560009182527f8a35acfbc15ff81a39ae7d344fd709f28e8600b4aa8c65c6b64bfe7fe36bd19b01558061033781610ada565b9150506102f1565b5060005b600a548110156103a5576000196008600084848151811061036657610366610b01565b60200260200101516001600160a01b03166001600160a01b0316815260200190815260200160002081905550808061039d90610ada565b915050610343565b50506005805460ff191660011790555050565b33600090815260086020526040902054600019146104185760405162461bcd60e51b815260206004820152601860248201527f556e7265676973746572656420766f7465722e204379612e000000000000000060448201526064016100fc565b60055460ff16151560011461042c57600080fd5b600554610100900460ff161561044157600080fd5b600354811061044f57600080fd5b6004818154811061046257610462610b01565b6000918252602082200180549161047883610ada565b90915550506006805490600061048d83610ada565b9091555050336000908152600860205260409020819055600a54600654036104bf576005805461ff0019166101001790555b50565b600080546104cf90610991565b80601f01602080910402602001604051908101604052809291908181526020018280546104fb90610991565b80156105485780601f1061051d57610100808354040283529160200191610548565b820191906000526020600020905b81548152906001019060200180831161052b57829003601f168201915b505050505081565b600180546104cf90610991565b6002818154811061056d57600080fd5b9060005260206000200160009150905080546104cf90610991565b8280548282559060005260206000209081019282156105ce579160200282015b828111156105ce57825182906105be9082610a1a565b50916020019190600101906105a8565b506105da92915061063f565b5090565b828054828255906000526020600020908101928215610633579160200282015b8281111561063357825182546001600160a01b0319166001600160a01b039091161782556020909201916001909101906105fe565b506105da92915061065c565b808211156105da5760006106538282610671565b5060010161063f565b5b808211156105da576000815560010161065d565b50805461067d90610991565b6000825580601f1061068d575050565b601f0160209004906000526020600020908101906104bf919061065c565b6000602082840312156106bd57600080fd5b5035919050565b634e487b7160e01b600052604160045260246000fd5b604051601f8201601f1916810167ffffffffffffffff81118282101715610703576107036106c4565b604052919050565b600082601f83011261071c57600080fd5b813567ffffffffffffffff811115610736576107366106c4565b610749601f8201601f19166020016106da565b81815284602083860101111561075e57600080fd5b816020850160208301376000918101602001919091529392505050565b600067ffffffffffffffff821115610795576107956106c4565b5060051b60200190565b6001600160a01b03811681146104bf57600080fd5b600082601f8301126107c557600080fd5b813560206107da6107d58361077b565b6106da565b82815260059290921b840181019181810190868411156107f957600080fd5b8286015b8481101561081d5780356108108161079f565b83529183019183016107fd565b509695505050505050565b60008060006060848603121561083d57600080fd5b833567ffffffffffffffff8082111561085557600080fd5b6108618783880161070b565b945060209150818601358181111561087857600080fd5b8601601f8101881361088957600080fd5b80356108976107d58261077b565b81815260059190911b8201840190848101908a8311156108b657600080fd5b8584015b838110156108ee578035868111156108d25760008081fd5b6108e08d898389010161070b565b8452509186019186016108ba565b509650505050604086013591508082111561090857600080fd5b50610915868287016107b4565b9150509250925092565b600060208083528351808285015260005b8181101561094c57858101830151858201604001528201610930565b506000604082860101526040601f19601f8301168501019250505092915050565b60006020828403121561097f57600080fd5b813561098a8161079f565b9392505050565b600181811c908216806109a557607f821691505b6020821081036109c557634e487b7160e01b600052602260045260246000fd5b50919050565b601f821115610a1557600081815260208120601f850160051c810160208610156109f25750805b601f850160051c820191505b81811015610a11578281556001016109fe565b5050505b505050565b815167ffffffffffffffff811115610a3457610a346106c4565b610a4881610a428454610991565b846109cb565b602080601f831160018114610a7d5760008415610a655750858301515b600019600386901b1c1916600185901b178555610a11565b600085815260208120601f198616915b82811015610aac57888601518255948401946001909101908401610a8d565b5085821015610aca5787850151600019600388901b60f8161c191681555b5050505050600190811b01905550565b600060018201610afa57634e487b7160e01b600052601160045260246000fd5b5060010190565b634e487b7160e01b600052603260045260246000fdfea264697066735822122024593fc11ac9df4e461e06f6d553022a31d57d6a6e1cebf8ade15b4d661ecc6964736f6c63430008110033",
    "sourcePath": "/home/mdip/Projects/democracy/ethereum-smart-contract/Democracy.sol",
    "compiler": {
        "name": "solc",
        "version": "0.8.17+commit.8df45f5f"
    },
    "functionHashes": {
        "beginVote(string,string[],address[])": "3f7be535",
        "choices(uint256)": "f6fd7fde",
        "ended()": "12fa6feb",
        "numChoices()": "a9092c11",
        "results(uint256)": "1b0c27da",
        "sendBallot(uint256)": "4900a285",
        "started()": "1f2698ab",
        "topic()": "bf63a577",
        "version()": "54fd4d50",
        "voted(address)": "aec2ccae"
    },
    "gasEstimates": {
        "creation": {
            "codeDepositCost": "578600",
            "executionCost": "infinite",
            "totalCost": "infinite"
        },
        "external": {
            "beginVote(string,string[],address[])": "infinite",
            "choices(uint256)": "infinite",
            "ended()": "2311",
            "numChoices()": "2317",
            "results(uint256)": "4598",
            "sendBallot(uint256)": "infinite",
            "started()": "2344",
            "topic()": "infinite",
            "version()": "infinite",
            "voted(address)": "2557"
        }
    }
}