{
    "contractName": "Democracy",
    "abi": [
        {
            "inputs": [
                {
                    "internalType": "string",
                    "name": "_question",
                    "type": "string"
                },
                {
                    "internalType": "string[]",
                    "name": "_choices",
                    "type": "string[]"
                },
                {
                    "internalType": "address payable[]",
                    "name": "_voters",
                    "type": "address[]"
                }
            ],
            "stateMutability": "payable",
            "type": "constructor"
        },
        {
            "inputs": [],
            "name": "getChoices",
            "outputs": [
                {
                    "internalType": "string[]",
                    "name": "",
                    "type": "string[]"
                }
            ],
            "stateMutability": "view",
            "type": "function"
        },
        {
            "inputs": [],
            "name": "getResults",
            "outputs": [
                {
                    "internalType": "uint256[]",
                    "name": "",
                    "type": "uint256[]"
                }
            ],
            "stateMutability": "view",
            "type": "function"
        },
        {
            "inputs": [],
            "name": "getTopic",
            "outputs": [
                {
                    "internalType": "string",
                    "name": "",
                    "type": "string"
                }
            ],
            "stateMutability": "view",
            "type": "function"
        },
        {
            "inputs": [
                {
                    "internalType": "uint256",
                    "name": "_ballot",
                    "type": "uint256"
                }
            ],
            "name": "sendBallot",
            "outputs": [],
            "stateMutability": "nonpayable",
            "type": "function"
        },
        {
            "inputs": [
                {
                    "internalType": "address",
                    "name": "",
                    "type": "address"
                }
            ],
            "name": "voted",
            "outputs": [
                {
                    "internalType": "int256",
                    "name": "",
                    "type": "int256"
                }
            ],
            "stateMutability": "view",
            "type": "function"
        },
        {
            "stateMutability": "payable",
            "type": "receive"
        }
    ],
    "bytecode": "608060408190526003805460ff1916905562000da9388190039081908339810160408190526200002f91620004b6565b60006004819055600855600580546001600160a01b031916331790556040805160608101825284815260208101849052835190918201906001600160401b038111156200008057620000806200069a565b604051908082528060200260200182016040528015620000aa578160200160208202803683370190505b50905280518051600091620000c59183916020019062000192565b506020828101518051620000e0926001850192019062000221565b5060408201518051620000fe91600284019160209091019062000281565b5050815160088190556200011b91506007906020840190620002be565b5060005b60085481101562000188576000196006600084848151811062000146576200014662000684565b60200260200101516001600160a01b03166001600160a01b031681526020019081526020016000208190555080806200017f906200065a565b9150506200011f565b50505050620006b0565b828054620001a0906200061d565b90600052602060002090601f016020900481019282620001c457600085556200020f565b82601f10620001df57805160ff19168380011785556200020f565b828001600101855582156200020f579182015b828111156200020f578251825591602001919060010190620001f2565b506200021d92915062000316565b5090565b82805482825590600052602060002090810192821562000273579160200282015b828111156200027357825180516200026291849160209091019062000192565b509160200191906001019062000242565b506200021d9291506200032d565b8280548282559060005260206000209081019282156200020f57916020028201828111156200020f578251825591602001919060010190620001f2565b8280548282559060005260206000209081019282156200020f579160200282015b828111156200020f57825182546001600160a01b0319166001600160a01b03909116178255602090920191600190910190620002df565b5b808211156200021d576000815560010162000317565b808211156200021d5760006200034482826200034e565b506001016200032d565b5080546200035c906200061d565b6000825580601f106200036d575050565b601f0160209004906000526020600020908101906200038d919062000316565b50565b600082601f830112620003a257600080fd5b81516020620003bb620003b583620005f7565b620005c4565b80838252828201915082860187848660051b8901011115620003dc57600080fd5b6000805b86811015620004135782516001600160a01b038116811462000400578283fd5b85529385019391850191600101620003e0565b509198975050505050505050565b600082601f8301126200043357600080fd5b81516001600160401b038111156200044f576200044f6200069a565b602062000465601f8301601f19168201620005c4565b82815285828487010111156200047a57600080fd5b60005b838110156200049a5785810183015182820184015282016200047d565b83811115620004ac5760008385840101525b5095945050505050565b600080600060608486031215620004cc57600080fd5b83516001600160401b0380821115620004e457600080fd5b620004f28783880162000421565b94506020915081860151818111156200050a57600080fd5b8601601f810188136200051c57600080fd5b80516200052d620003b582620005f7565b8082825285820191508584018b878560051b87010111156200054e57600080fd5b60005b848110156200058e578151878111156200056a57600080fd5b6200057a8e8a838a010162000421565b855250928701929087019060010162000551565b505060408a0151909750945050505080821115620005ab57600080fd5b50620005ba8682870162000390565b9150509250925092565b604051601f8201601f191681016001600160401b0381118282101715620005ef57620005ef6200069a565b604052919050565b60006001600160401b038211156200061357620006136200069a565b5060051b60200190565b600181811c908216806200063257607f821691505b602082108114156200065457634e487b7160e01b600052602260045260246000fd5b50919050565b60006000198214156200067d57634e487b7160e01b600052601160045260246000fd5b5060010190565b634e487b7160e01b600052603260045260246000fd5b634e487b7160e01b600052604160045260246000fd5b6106e980620006c06000396000f3fe60806040526004361061004e5760003560e01c80634717f97c146100c55780634900a285146100f057806395066e331461011057806398c81bbf14610132578063aec2ccae1461015457600080fd5b366100c0576005546001600160a01b031633146100be5760405162461bcd60e51b8152602060048201526024808201527f4f776e61626c653a20596f7520617265206e6f7420746865206f776e65722c20604482015263213cb29760e11b60648201526084015b60405180910390fd5b005b600080fd5b3480156100d157600080fd5b506100da61018f565b6040516100e791906105ab565b60405180910390f35b3480156100fc57600080fd5b506100be61010b3660046104e3565b61024d565b34801561011c57600080fd5b506101256102f1565b6040516100e791906105ef565b34801561013e57600080fd5b506101476103ab565b6040516100e79190610549565b34801561016057600080fd5b5061018161016f3660046104b3565b60066020526000908152604090205481565b6040519081526020016100e7565b60035460609060ff1615156001146101fa5760405162461bcd60e51b815260206004820152602860248201527f566f74696e6720696e2070726f67726573732e20526573756c747320756e617660448201526730b4b630b136329760c11b60648201526084016100b5565b600280546040805160208084028201810190925282815292919083018282801561024357602002820191906000526020600020905b81548152602001906001019080831161022f575b5050505050905090565b336000908152600660205260409020546000191461027d5760405162461bcd60e51b81526004016100b590610602565b60028054829081106102915761029161069d565b600091825260208220018054916102a783610674565b9091555050600480549060006102bc83610674565b90915550503360009081526006602052604090206001905560085460045414156102ee576003805460ff191660011790555b50565b33600090815260066020526040902054606090600019146103245760405162461bcd60e51b81526004016100b590610602565b6000805461033190610639565b80601f016020809104026020016040519081016040528092919081815260200182805461035d90610639565b80156102435780601f1061037f57610100808354040283529160200191610243565b820191906000526020600020905b81548152906001019060200180831161038d57509395945050505050565b33600090815260066020526040902054606090600019146103de5760405162461bcd60e51b81526004016100b590610602565b600180546040805160208084028201810190925282815292919060009084015b828210156104aa57838290600052602060002001805461041d90610639565b80601f016020809104026020016040519081016040528092919081815260200182805461044990610639565b80156104965780601f1061046b57610100808354040283529160200191610496565b820191906000526020600020905b81548152906001019060200180831161047957829003601f168201915b5050505050815260200190600101906103fe565b50505050905090565b6000602082840312156104c557600080fd5b81356001600160a01b03811681146104dc57600080fd5b9392505050565b6000602082840312156104f557600080fd5b5035919050565b6000815180845260005b8181101561052257602081850181015186830182015201610506565b81811115610534576000602083870101525b50601f01601f19169290920160200192915050565b6000602080830181845280855180835260408601915060408160051b870101925083870160005b8281101561059e57603f1988860301845261058c8583516104fc565b94509285019290850190600101610570565b5092979650505050505050565b6020808252825182820181905260009190848201906040850190845b818110156105e3578351835292840192918401916001016105c7565b50909695505050505050565b6020815260006104dc60208301846104fc565b60208082526018908201527f556e7265676973746572656420766f7465722e204379612e0000000000000000604082015260600190565b600181811c9082168061064d57607f821691505b6020821081141561066e57634e487b7160e01b600052602260045260246000fd5b50919050565b600060001982141561069657634e487b7160e01b600052601160045260246000fd5b5060010190565b634e487b7160e01b600052603260045260246000fdfea2646970667358221220903dd0c0dc4fa25bc9e99a785cc7a18dfc9f327e3fb136019f8cc2bfbaac165664736f6c63430008070033",
    "sourcePath": "/home/mdip/Projects/democracy/ethereum-smart-contract/Democracy.sol",
    "compiler": {
        "name": "solc",
        "version": "0.8.7+commit.e28d00a7"
    },
    "functionHashes": {
        "getChoices()": "98c81bbf",
        "getResults()": "4717f97c",
        "getTopic()": "95066e33",
        "sendBallot(uint256)": "4900a285",
        "voted(address)": "aec2ccae"
    },
    "gasEstimates": {
        "creation": {
            "codeDepositCost": "353800",
            "executionCost": "infinite",
            "totalCost": "infinite"
        },
        "external": {
            "getChoices()": "infinite",
            "getResults()": "infinite",
            "getTopic()": "infinite",
            "sendBallot(uint256)": "infinite",
            "voted(address)": "2550"
        },
        "internal": {
            "lock()": "infinite"
        }
    }
}