{
    "contractName": "Democracy",
    "abi": [
        {
            "inputs": [],
            "stateMutability": "payable",
            "type": "constructor"
        },
        {
            "inputs": [
                {
                    "internalType": "string",
                    "name": "_question",
                    "type": "string"
                },
                {
                    "internalType": "string[]",
                    "name": "_choices",
                    "type": "string[]"
                },
                {
                    "internalType": "address payable[]",
                    "name": "_voters",
                    "type": "address[]"
                }
            ],
            "name": "beginVote",
            "outputs": [],
            "stateMutability": "nonpayable",
            "type": "function"
        },
        {
            "inputs": [
                {
                    "internalType": "uint256",
                    "name": "",
                    "type": "uint256"
                }
            ],
            "name": "choices",
            "outputs": [
                {
                    "internalType": "string",
                    "name": "",
                    "type": "string"
                }
            ],
            "stateMutability": "view",
            "type": "function"
        },
        {
            "inputs": [],
            "name": "ended",
            "outputs": [
                {
                    "internalType": "bool",
                    "name": "",
                    "type": "bool"
                }
            ],
            "stateMutability": "view",
            "type": "function"
        },
        {
            "inputs": [],
            "name": "numChoices",
            "outputs": [
                {
                    "internalType": "uint256",
                    "name": "",
                    "type": "uint256"
                }
            ],
            "stateMutability": "view",
            "type": "function"
        },
        {
            "inputs": [
                {
                    "internalType": "uint256",
                    "name": "",
                    "type": "uint256"
                }
            ],
            "name": "results",
            "outputs": [
                {
                    "internalType": "uint256",
                    "name": "",
                    "type": "uint256"
                }
            ],
            "stateMutability": "view",
            "type": "function"
        },
        {
            "inputs": [
                {
                    "internalType": "uint256",
                    "name": "_ballot",
                    "type": "uint256"
                }
            ],
            "name": "sendBallot",
            "outputs": [],
            "stateMutability": "nonpayable",
            "type": "function"
        },
        {
            "inputs": [],
            "name": "started",
            "outputs": [
                {
                    "internalType": "bool",
                    "name": "",
                    "type": "bool"
                }
            ],
            "stateMutability": "view",
            "type": "function"
        },
        {
            "inputs": [],
            "name": "topic",
            "outputs": [
                {
                    "internalType": "string",
                    "name": "",
                    "type": "string"
                }
            ],
            "stateMutability": "view",
            "type": "function"
        },
        {
            "inputs": [
                {
                    "internalType": "address",
                    "name": "",
                    "type": "address"
                }
            ],
            "name": "voted",
            "outputs": [
                {
                    "internalType": "int256",
                    "name": "",
                    "type": "int256"
                }
            ],
            "stateMutability": "view",
            "type": "function"
        },
        {
            "stateMutability": "payable",
            "type": "receive"
        }
    ],
    "bytecode": "60806040526004805461ffff19169055600680546001600160a01b03191633179055610b13806100306000396000f3fe60806040526004361061008a5760003560e01c80634900a285116100595780634900a2851461019d578063a9092c11146101bd578063aec2ccae146101d3578063bf63a57714610200578063f6fd7fde1461022257600080fd5b806312fa6feb146101015780631b0c27da146101355780631f2698ab146101635780633f7be5351461017d57600080fd5b366100fc576006546001600160a01b031633146100fa5760405162461bcd60e51b8152602060048201526024808201527f4f776e61626c653a20596f7520617265206e6f7420746865206f776e65722c20604482015263213cb29760e11b60648201526084015b60405180910390fd5b005b600080fd5b34801561010d57600080fd5b5060045461012090610100900460ff1681565b60405190151581526020015b60405180910390f35b34801561014157600080fd5b50610155610150366004610671565b610242565b60405190815260200161012c565b34801561016f57600080fd5b506004546101209060ff1681565b34801561018957600080fd5b506100fa6101983660046107ee565b610263565b3480156101a957600080fd5b506100fa6101b8366004610671565b610398565b3480156101c957600080fd5b5061015560025481565b3480156101df57600080fd5b506101556101ee3660046108e5565b60076020526000908152604090205481565b34801561020c57600080fd5b50610215610495565b60405161012c9190610909565b34801561022e57600080fd5b5061021561023d366004610671565b610523565b6003818154811061025257600080fd5b600091825260209091200154905081565b6006546001600160a01b0316331461027a57600080fd5b60045460ff161561028a57600080fd5b6000600581905561029b84826109e0565b50815160028190556102b490600190602085019061054e565b50805160098190556102cd9060089060208401906105a4565b5060005b60025481101561031f576003805460018101825560009182527fc2575a0e9e593c00f959f8c92f12db2869c3395a3b0502d05e2516446f71f85b01558061031781610aa0565b9150506102d1565b5060005b600954811015610385576000196007600084848151811061034657610346610ac7565b60200260200101516001600160a01b03166001600160a01b0316815260200190815260200160002081905550808061037d90610aa0565b915050610323565b50506004805460ff191660011790555050565b33600090815260076020526040902054600019146103f85760405162461bcd60e51b815260206004820152601860248201527f556e7265676973746572656420766f7465722e204379612e000000000000000060448201526064016100f1565b60045460ff16151560011461040c57600080fd5b600454610100900460ff161561042157600080fd5b6003818154811061043457610434610ac7565b6000918252602082200180549161044a83610aa0565b90915550506005805490600061045f83610aa0565b90915550503360009081526007602052604090206001905560095460055403610492576004805461ff0019166101001790555b50565b600080546104a290610957565b80601f01602080910402602001604051908101604052809291908181526020018280546104ce90610957565b801561051b5780601f106104f05761010080835404028352916020019161051b565b820191906000526020600020905b8154815290600101906020018083116104fe57829003601f168201915b505050505081565b6001818154811061053357600080fd5b9060005260206000200160009150905080546104a290610957565b828054828255906000526020600020908101928215610594579160200282015b82811115610594578251829061058490826109e0565b509160200191906001019061056e565b506105a0929150610605565b5090565b8280548282559060005260206000209081019282156105f9579160200282015b828111156105f957825182546001600160a01b0319166001600160a01b039091161782556020909201916001909101906105c4565b506105a0929150610622565b808211156105a05760006106198282610637565b50600101610605565b5b808211156105a05760008155600101610623565b50805461064390610957565b6000825580601f10610653575050565b601f0160209004906000526020600020908101906104929190610622565b60006020828403121561068357600080fd5b5035919050565b634e487b7160e01b600052604160045260246000fd5b604051601f8201601f1916810167ffffffffffffffff811182821017156106c9576106c961068a565b604052919050565b600082601f8301126106e257600080fd5b813567ffffffffffffffff8111156106fc576106fc61068a565b61070f601f8201601f19166020016106a0565b81815284602083860101111561072457600080fd5b816020850160208301376000918101602001919091529392505050565b600067ffffffffffffffff82111561075b5761075b61068a565b5060051b60200190565b6001600160a01b038116811461049257600080fd5b600082601f83011261078b57600080fd5b813560206107a061079b83610741565b6106a0565b82815260059290921b840181019181810190868411156107bf57600080fd5b8286015b848110156107e35780356107d681610765565b83529183019183016107c3565b509695505050505050565b60008060006060848603121561080357600080fd5b833567ffffffffffffffff8082111561081b57600080fd5b610827878388016106d1565b945060209150818601358181111561083e57600080fd5b8601601f8101881361084f57600080fd5b803561085d61079b82610741565b81815260059190911b8201840190848101908a83111561087c57600080fd5b8584015b838110156108b4578035868111156108985760008081fd5b6108a68d89838901016106d1565b845250918601918601610880565b50965050505060408601359150808211156108ce57600080fd5b506108db8682870161077a565b9150509250925092565b6000602082840312156108f757600080fd5b813561090281610765565b9392505050565b600060208083528351808285015260005b818110156109365785810183015185820160400152820161091a565b506000604082860101526040601f19601f8301168501019250505092915050565b600181811c9082168061096b57607f821691505b60208210810361098b57634e487b7160e01b600052602260045260246000fd5b50919050565b601f8211156109db57600081815260208120601f850160051c810160208610156109b85750805b601f850160051c820191505b818110156109d7578281556001016109c4565b5050505b505050565b815167ffffffffffffffff8111156109fa576109fa61068a565b610a0e81610a088454610957565b84610991565b602080601f831160018114610a435760008415610a2b5750858301515b600019600386901b1c1916600185901b1785556109d7565b600085815260208120601f198616915b82811015610a7257888601518255948401946001909101908401610a53565b5085821015610a905787850151600019600388901b60f8161c191681555b5050505050600190811b01905550565b600060018201610ac057634e487b7160e01b600052601160045260246000fd5b5060010190565b634e487b7160e01b600052603260045260246000fdfea2646970667358221220f014d59e7da3d4a2fd0b838ba5701b0d5b83a2746a4a17ddd9fea8e41e44e60664736f6c63430008110033",
    "sourcePath": "/home/mdip/Projects/democracy/ethereum-smart-contract/Democracy.sol",
    "compiler": {
        "name": "solc",
        "version": "0.8.17+commit.8df45f5f"
    },
    "functionHashes": {
        "beginVote(string,string[],address[])": "3f7be535",
        "choices(uint256)": "f6fd7fde",
        "ended()": "12fa6feb",
        "numChoices()": "a9092c11",
        "results(uint256)": "1b0c27da",
        "sendBallot(uint256)": "4900a285",
        "started()": "1f2698ab",
        "topic()": "bf63a577",
        "voted(address)": "aec2ccae"
    },
    "gasEstimates": {
        "creation": {
            "codeDepositCost": "567000",
            "executionCost": "49029",
            "totalCost": "616029"
        },
        "external": {
            "beginVote(string,string[],address[])": "infinite",
            "choices(uint256)": "infinite",
            "ended()": "2311",
            "numChoices()": "2317",
            "results(uint256)": "4598",
            "sendBallot(uint256)": "infinite",
            "started()": "2344",
            "topic()": "infinite",
            "voted(address)": "2557"
        }
    }
}